{
    "_format": "hh-sol-artifact-1",
    "contractName": "TenderContract",
    "sourceName": "contracts/TenderContract.sol",
    "abi": [
        {
            "anonymous": false,
            "inputs": [
                {
                    "indexed": true,
                    "internalType": "uint32",
                    "name": "tenderId",
                    "type": "uint32"
                },
                {
                    "indexed": true,
                    "internalType": "address",
                    "name": "vendor",
                    "type": "address"
                },
                {
                    "indexed": false,
                    "internalType": "uint32",
                    "name": "amount",
                    "type": "uint32"
                }
            ],
            "name": "BidSubmitted",
            "type": "event"
        },
        {
            "anonymous": false,
            "inputs": [
                {
                    "indexed": true,
                    "internalType": "uint32",
                    "name": "tenderId",
                    "type": "uint32"
                },
                {
                    "indexed": true,
                    "internalType": "uint8",
                    "name": "milestoneId",
                    "type": "uint8"
                }
            ],
            "name": "MilestoneAdded",
            "type": "event"
        },
        {
            "anonymous": false,
            "inputs": [
                {
                    "indexed": true,
                    "internalType": "uint32",
                    "name": "tenderId",
                    "type": "uint32"
                },
                {
                    "indexed": true,
                    "internalType": "uint8",
                    "name": "milestoneId",
                    "type": "uint8"
                }
            ],
            "name": "MilestoneCompleted",
            "type": "event"
        },
        {
            "anonymous": false,
            "inputs": [
                {
                    "indexed": true,
                    "internalType": "uint32",
                    "name": "tenderId",
                    "type": "uint32"
                },
                {
                    "indexed": true,
                    "internalType": "uint8",
                    "name": "milestoneId",
                    "type": "uint8"
                },
                {
                    "indexed": false,
                    "internalType": "string",
                    "name": "proofHash",
                    "type": "string"
                }
            ],
            "name": "MilestoneReported",
            "type": "event"
        },
        {
            "anonymous": false,
            "inputs": [
                {
                    "indexed": true,
                    "internalType": "uint32",
                    "name": "tenderId",
                    "type": "uint32"
                },
                {
                    "indexed": true,
                    "internalType": "address",
                    "name": "winner",
                    "type": "address"
                }
            ],
            "name": "TenderAwarded",
            "type": "event"
        },
        {
            "anonymous": false,
            "inputs": [
                {
                    "indexed": true,
                    "internalType": "uint32",
                    "name": "tenderId",
                    "type": "uint32"
                }
            ],
            "name": "TenderClosed",
            "type": "event"
        },
        {
            "anonymous": false,
            "inputs": [
                {
                    "indexed": true,
                    "internalType": "uint32",
                    "name": "tenderId",
                    "type": "uint32"
                },
                {
                    "indexed": true,
                    "internalType": "address",
                    "name": "employer",
                    "type": "address"
                }
            ],
            "name": "TenderCreated",
            "type": "event"
        },
        {
            "anonymous": false,
            "inputs": [
                {
                    "indexed": true,
                    "internalType": "uint32",
                    "name": "tenderId",
                    "type": "uint32"
                }
            ],
            "name": "TenderUpdated",
            "type": "event"
        },
        {
            "stateMutability": "payable",
            "type": "fallback"
        },
        {
            "inputs": [
                {
                    "internalType": "uint32",
                    "name": "_tenderId",
                    "type": "uint32"
                },
                {
                    "internalType": "string",
                    "name": "_description",
                    "type": "string"
                },
                {
                    "internalType": "uint32",
                    "name": "_deadline",
                    "type": "uint32"
                },
                {
                    "internalType": "uint32",
                    "name": "_amount",
                    "type": "uint32"
                }
            ],
            "name": "addMilestone",
            "outputs": [],
            "stateMutability": "nonpayable",
            "type": "function"
        },
        {
            "inputs": [
                {
                    "internalType": "uint32",
                    "name": "_tenderId",
                    "type": "uint32"
                },
                {
                    "internalType": "address",
                    "name": "_winner",
                    "type": "address"
                }
            ],
            "name": "awardTender",
            "outputs": [],
            "stateMutability": "nonpayable",
            "type": "function"
        },
        {
            "inputs": [
                {
                    "internalType": "uint32",
                    "name": "_tenderId",
                    "type": "uint32"
                }
            ],
            "name": "closeTender",
            "outputs": [],
            "stateMutability": "nonpayable",
            "type": "function"
        },
        {
            "inputs": [
                {
                    "internalType": "uint32",
                    "name": "_tenderId",
                    "type": "uint32"
                },
                {
                    "internalType": "uint8",
                    "name": "_milestoneId",
                    "type": "uint8"
                }
            ],
            "name": "completeMilestone",
            "outputs": [],
            "stateMutability": "nonpayable",
            "type": "function"
        },
        {
            "inputs": [
                {
                    "internalType": "string",
                    "name": "_descriptionHash",
                    "type": "string"
                },
                {
                    "internalType": "uint32",
                    "name": "_budget",
                    "type": "uint32"
                },
                {
                    "internalType": "uint32",
                    "name": "_deadline",
                    "type": "uint32"
                },
                {
                    "internalType": "string[]",
                    "name": "_requiredCerts",
                    "type": "string[]"
                }
            ],
            "name": "createTender",
            "outputs": [],
            "stateMutability": "nonpayable",
            "type": "function"
        },
        {
            "inputs": [
                {
                    "internalType": "uint32",
                    "name": "_tenderId",
                    "type": "uint32"
                },
                {
                    "internalType": "uint8",
                    "name": "_milestoneId",
                    "type": "uint8"
                }
            ],
            "name": "getMilestone",
            "outputs": [
                {
                    "components": [
                        {
                            "internalType": "uint32",
                            "name": "deadline",
                            "type": "uint32"
                        },
                        {
                            "internalType": "uint32",
                            "name": "amount",
                            "type": "uint32"
                        },
                        {
                            "internalType": "string",
                            "name": "description",
                            "type": "string"
                        },
                        {
                            "internalType": "string",
                            "name": "proofHash",
                            "type": "string"
                        },
                        {
                            "internalType": "bool",
                            "name": "completed",
                            "type": "bool"
                        },
                        {
                            "internalType": "bool",
                            "name": "penaltyApplied",
                            "type": "bool"
                        }
                    ],
                    "internalType": "struct TenderContract.Milestone",
                    "name": "",
                    "type": "tuple"
                }
            ],
            "stateMutability": "view",
            "type": "function"
        },
        {
            "inputs": [
                {
                    "internalType": "uint32",
                    "name": "_tenderId",
                    "type": "uint32"
                }
            ],
            "name": "getTender",
            "outputs": [
                {
                    "components": [
                        {
                            "internalType": "uint32",
                            "name": "id",
                            "type": "uint32"
                        },
                        {
                            "internalType": "uint32",
                            "name": "budget",
                            "type": "uint32"
                        },
                        {
                            "internalType": "uint32",
                            "name": "deadline",
                            "type": "uint32"
                        },
                        {
                            "internalType": "address",
                            "name": "employer",
                            "type": "address"
                        },
                        {
                            "internalType": "address",
                            "name": "winner",
                            "type": "address"
                        },
                        {
                            "internalType": "string",
                            "name": "descriptionHash",
                            "type": "string"
                        },
                        {
                            "internalType": "string[]",
                            "name": "requiredCerts",
                            "type": "string[]"
                        },
                        {
                            "internalType": "bool",
                            "name": "isOpen",
                            "type": "bool"
                        },
                        {
                            "internalType": "uint8",
                            "name": "milestoneCount",
                            "type": "uint8"
                        }
                    ],
                    "internalType": "struct TenderContract.TenderWithoutMilestones",
                    "name": "result",
                    "type": "tuple"
                }
            ],
            "stateMutability": "view",
            "type": "function"
        },
        {
            "inputs": [],
            "name": "getTenderCount",
            "outputs": [
                {
                    "internalType": "uint32",
                    "name": "",
                    "type": "uint32"
                }
            ],
            "stateMutability": "view",
            "type": "function"
        },
        {
            "inputs": [
                {
                    "internalType": "uint32",
                    "name": "tenderId",
                    "type": "uint32"
                },
                {
                    "internalType": "uint32",
                    "name": "milestoneId",
                    "type": "uint32"
                }
            ],
            "name": "milestones",
            "outputs": [
                {
                    "internalType": "uint32",
                    "name": "deadline",
                    "type": "uint32"
                },
                {
                    "internalType": "uint32",
                    "name": "amount",
                    "type": "uint32"
                },
                {
                    "internalType": "string",
                    "name": "description",
                    "type": "string"
                },
                {
                    "internalType": "string",
                    "name": "proofHash",
                    "type": "string"
                },
                {
                    "internalType": "bool",
                    "name": "completed",
                    "type": "bool"
                },
                {
                    "internalType": "bool",
                    "name": "penaltyApplied",
                    "type": "bool"
                }
            ],
            "stateMutability": "view",
            "type": "function"
        },
        {
            "inputs": [
                {
                    "internalType": "uint32",
                    "name": "_tenderId",
                    "type": "uint32"
                },
                {
                    "internalType": "uint8",
                    "name": "_milestoneId",
                    "type": "uint8"
                },
                {
                    "internalType": "string",
                    "name": "_proofHash",
                    "type": "string"
                }
            ],
            "name": "reportProgress",
            "outputs": [],
            "stateMutability": "nonpayable",
            "type": "function"
        },
        {
            "inputs": [
                {
                    "internalType": "uint32",
                    "name": "_tenderId",
                    "type": "uint32"
                },
                {
                    "internalType": "uint32",
                    "name": "_amount",
                    "type": "uint32"
                }
            ],
            "name": "submitBid",
            "outputs": [],
            "stateMutability": "nonpayable",
            "type": "function"
        },
        {
            "inputs": [],
            "name": "tenderCount",
            "outputs": [
                {
                    "internalType": "uint32",
                    "name": "",
                    "type": "uint32"
                }
            ],
            "stateMutability": "view",
            "type": "function"
        },
        {
            "inputs": [
                {
                    "internalType": "uint32",
                    "name": "tenderId",
                    "type": "uint32"
                }
            ],
            "name": "tenders",
            "outputs": [
                {
                    "internalType": "uint32",
                    "name": "id",
                    "type": "uint32"
                },
                {
                    "internalType": "uint32",
                    "name": "budget",
                    "type": "uint32"
                },
                {
                    "internalType": "uint32",
                    "name": "deadline",
                    "type": "uint32"
                },
                {
                    "internalType": "address",
                    "name": "employer",
                    "type": "address"
                },
                {
                    "internalType": "address",
                    "name": "winner",
                    "type": "address"
                },
                {
                    "internalType": "string",
                    "name": "descriptionHash",
                    "type": "string"
                },
                {
                    "internalType": "bool",
                    "name": "isOpen",
                    "type": "bool"
                },
                {
                    "internalType": "uint8",
                    "name": "milestoneCount",
                    "type": "uint8"
                }
            ],
            "stateMutability": "view",
            "type": "function"
        },
        {
            "inputs": [
                {
                    "internalType": "uint32",
                    "name": "_tenderId",
                    "type": "uint32"
                },
                {
                    "internalType": "string",
                    "name": "_descriptionHash",
                    "type": "string"
                },
                {
                    "internalType": "uint32",
                    "name": "_deadline",
                    "type": "uint32"
                },
                {
                    "internalType": "string[]",
                    "name": "_requiredCerts",
                    "type": "string[]"
                }
            ],
            "name": "updateTender",
            "outputs": [],
            "stateMutability": "nonpayable",
            "type": "function"
        },
        {
            "stateMutability": "payable",
            "type": "receive"
        }
    ],
    "bytecode": "0x608060405234801561001057600080fd5b50611f8f806100206000396000f3fe6080604052600436106100d55760003560e01c806366f40695116100795780639481e9af116100565780639481e9af1461025c578063976dc97214610290578063ed008690146102b0578063f280478d146102d057005b806366f40695146101ef57806367f814531461020f5780637b6b4d4f1461022f57005b80632d14ba34116100b25780632d14ba34146101555780634ce801661461017557806352d1f9a8146101a25780635850b383146101d457005b80630abb31ff146100de5780631a7b6663146100fe5780631f0587761461011e57005b366100dc57005b005b3480156100ea57600080fd5b506100dc6100f936600461165e565b6102f0565b34801561010a57600080fd5b506100dc6101193660046116e5565b6104ae565b34801561012a57600080fd5b5060025461013b9063ffffffff1681565b60405163ffffffff90911681526020015b60405180910390f35b34801561016157600080fd5b506100dc610170366004611746565b610635565b34801561018157600080fd5b50610195610190366004611779565b6107a8565b60405161014c9190611836565b3480156101ae57600080fd5b506101c26101bd366004611907565b6109e9565b60405161014c96959493929190611931565b3480156101e057600080fd5b5060025463ffffffff1661013b565b3480156101fb57600080fd5b506100dc61020a366004611779565b610b49565b34801561021b57600080fd5b506100dc61022a3660046119cc565b610c2b565b34801561023b57600080fd5b5061024f61024a366004611746565b610df9565b60405161014c9190611a60565b34801561026857600080fd5b5061027c610277366004611779565b61102e565b60405161014c989796959493929190611adc565b34801561029c57600080fd5b506100dc6102ab366004611b45565b61111e565b3480156102bc57600080fd5b506100dc6102cb366004611b88565b611220565b3480156102dc57600080fd5b506100dc6102eb366004611907565b61140b565b63ffffffff85166000908152602081905260409020548590600160601b90046001600160a01b0316331461033f5760405162461bcd60e51b815260040161033690611be7565b60405180910390fd5b63ffffffff808716600090815260208190526040902080549091848116600160201b90920416116103a35760405162461bcd60e51b815260206004820152600e60248201526d115e18d959591cc8189d5919d95d60921b6044820152606401610336565b600481018054610100900460ff169060016103bd83611c24565b825460ff91821661010093840a908102908302199091161790925563ffffffff8a1660009081526001602081815260408084206004890154959095049095168352929092529190912091508101610415878983611ce2565b5060408051602081019091526000815260028201906104349082611da3565b50805463ffffffff858116600160201b0267ffffffffffffffff199092168188161791909117825560038201805461ffff19169055600483015460405161010090910460ff16918a16907f793f45de361eed11c24f174988a0f48117826b6c227279766d651cc3e831c41990600090a35050505050505050565b63ffffffff8416600090815260208190526040902060018101546001600160a01b0316331461050d5760405162461bcd60e51b815260206004820152600b60248201526a27b7363c903bb4b73732b960a91b6044820152606401610336565b600481015461052590610100900460ff166001611e63565b60ff168460ff16106105495760405162461bcd60e51b815260040161033690611e7c565b8360ff1660000361056c5760405162461bcd60e51b815260040161033690611e7c565b63ffffffff8516600090815260016020908152604080832060ff808916855292529091206003810154909116156105d95760405162461bcd60e51b8152602060048201526011602482015270105b1c9958591e4818dbdb5c1b195d1959607a1b6044820152606401610336565b600281016105e8848683611ce2565b508460ff168663ffffffff167f14083b31f935e8d7490aa7d331b9bd405282707f0b9f215fcfe8cc23e5ad45428686604051610625929190611eaa565b60405180910390a3505050505050565b63ffffffff82166000908152602081905260409020548290600160601b90046001600160a01b0316331461067b5760405162461bcd60e51b815260040161033690611be7565b63ffffffff8316600090815260208190526040902060048101546106a890610100900460ff166001611e63565b60ff168360ff16106106cc5760405162461bcd60e51b815260040161033690611e7c565b8260ff166000036106ef5760405162461bcd60e51b815260040161033690611e7c565b63ffffffff8416600090815260016020908152604080832060ff8088168552925290912060038101549091161561075c5760405162461bcd60e51b8152602060048201526011602482015270105b1c9958591e4818dbdb5c1b195d1959607a1b6044820152606401610336565b60038101805460ff1916600117905560405160ff85169063ffffffff8716907fc4f7df824161637878275f96a831699290cadf69acba9d02a3c9a6619826538490600090a35050505050565b604080516101208101825260008082526020820181905291810182905260608082018390526080820183905260a0820181905260c082015260e0810182905261010081019190915263ffffffff828116600090815260208190526040902080549182168352600160601b9091046001600160a01b0316606083015260028101805461083290611c59565b80601f016020809104026020016040519081016040528092919081815260200182805461085e90611c59565b80156108ab5780601f10610880576101008083540402835291602001916108ab565b820191906000526020600020905b81548152906001019060200180831161088e57829003601f168201915b505050505060a0830152805463ffffffff600160201b82048116602080860191909152600160401b90920416604080850191909152600383018054825181850281018501909352808352919290919060009084015b828210156109ac57838290600052602060002001805461091f90611c59565b80601f016020809104026020016040519081016040528092919081815260200182805461094b90611c59565b80156109985780601f1061096d57610100808354040283529160200191610998565b820191906000526020600020905b81548152906001019060200180831161097b57829003601f168201915b505050505081526020019060010190610900565b5050505060c083015260018101546001600160a01b031660808301526004015460ff808216151560e0840152610100918290041690820152919050565b600160208181526000938452604080852090915291835291208054918101805463ffffffff80851694600160201b900416929190610a2690611c59565b80601f0160208091040260200160405190810160405280929190818152602001828054610a5290611c59565b8015610a9f5780601f10610a7457610100808354040283529160200191610a9f565b820191906000526020600020905b815481529060010190602001808311610a8257829003601f168201915b505050505090806002018054610ab490611c59565b80601f0160208091040260200160405190810160405280929190818152602001828054610ae090611c59565b8015610b2d5780601f10610b0257610100808354040283529160200191610b2d565b820191906000526020600020905b815481529060010190602001808311610b1057829003601f168201915b5050506003909301549192505060ff8082169161010090041686565b63ffffffff81166000908152602081905260409020548190600160601b90046001600160a01b03163314610b8f5760405162461bcd60e51b815260040161033690611be7565b63ffffffff82166000908152602081905260409020600481015460ff16610be95760405162461bcd60e51b815260206004820152600e60248201526d105b1c9958591e4818db1bdcd95960921b6044820152606401610336565b60048101805460ff1916905560405163ffffffff8416907f6f37d20b5c0086ec0f979bae9fddf12279f8df274135f58a9bf2d8f124f058cb90600090a2505050565b63ffffffff86166000908152602081905260409020548690600160601b90046001600160a01b03163314610c715760405162461bcd60e51b815260040161033690611be7565b63ffffffff8716600090815260208190526040902060028101610c95878983611ce2565b50805463ffffffff60401b1916600160401b63ffffffff87160217815582600b8110610cf45760405162461bcd60e51b815260206004820152600e60248201526d546f6f206d616e7920636572747360901b6044820152606401610336565b8067ffffffffffffffff811115610d0d57610d0d611c43565b604051908082528060200260200182016040528015610d4057816020015b6060815260200190600190039081610d2b5790505b508051610d57916003850191602090910190611537565b5060005b81811015610dbc57858582818110610d7557610d75611ed9565b9050602002810190610d879190611eef565b846003018381548110610d9c57610d9c611ed9565b906000526020600020019182610db3929190611ce2565b50600101610d5b565b5060405163ffffffff8a16907fc21a413dc00f4fff8d49daf162dd957f71958bec5ab72c4858df50298dffa50790600090a2505050505050505050565b6040805160c081018252600080825260208083018290526060838501819052808401526080830182905260a0830182905263ffffffff861682528190529190912060040154610e5190610100900460ff166001611e63565b60ff168260ff1610610e755760405162461bcd60e51b815260040161033690611e7c565b8160ff16600003610e985760405162461bcd60e51b815260040161033690611e7c565b63ffffffff808416600090815260016020818152604080842060ff88168552825292839020835160c08101855281548087168252600160201b90049095169185019190915290810180549192840191610ef090611c59565b80601f0160208091040260200160405190810160405280929190818152602001828054610f1c90611c59565b8015610f695780601f10610f3e57610100808354040283529160200191610f69565b820191906000526020600020905b815481529060010190602001808311610f4c57829003601f168201915b50505050508152602001600282018054610f8290611c59565b80601f0160208091040260200160405190810160405280929190818152602001828054610fae90611c59565b8015610ffb5780601f10610fd057610100808354040283529160200191610ffb565b820191906000526020600020905b815481529060010190602001808311610fde57829003601f168201915b50505091835250506003919091015460ff8082161515602084015261010090910416151560409091015290505b92915050565b60006020819052908152604090208054600182015460028301805463ffffffff80851695600160201b8604821695600160401b8104909216946001600160a01b03600160601b90930483169492169290919061108990611c59565b80601f01602080910402602001604051908101604052809291908181526020018280546110b590611c59565b80156111025780601f106110d757610100808354040283529160200191611102565b820191906000526020600020905b8154815290600101906020018083116110e557829003601f168201915b5050506004909301549192505060ff8082169161010090041688565b63ffffffff82166000908152602081905260409020548290600160601b90046001600160a01b031633146111645760405162461bcd60e51b815260040161033690611be7565b63ffffffff83166000908152602081905260409020600481015460ff166111bd5760405162461bcd60e51b815260206004820152600d60248201526c15195b99195c8818db1bdcd959609a1b6044820152606401610336565b6001810180546001600160a01b0319166001600160a01b03851690811790915560048201805460ff1916905560405163ffffffff8616907fc21bdcccf21ffe477577e22f2815c84fcf6cf85c7835e465c5df066cad91d76090600090a350505050565b8363ffffffff1660000361126b5760405162461bcd60e51b81526020600482015260126024820152710427564676574206d757374206265203e20360741b6044820152606401610336565b6002805463ffffffff1690600061128183611f36565b82546101009290920a63ffffffff81810219909316918316021790915560028054909116600081815260208190526040902080546bffffffffffffffff000000001690911733600160601b02178155915081016112df878983611ce2565b50805463ffffffff858116600160401b0263ffffffff60401b19918816600160201b02919091166bffffffffffffffff00000000199092169190911717815581600b81106113605760405162461bcd60e51b815260206004820152600e60248201526d546f6f206d616e7920636572747360901b6044820152606401610336565b60005b818110156113bc578260030185858381811061138157611381611ed9565b90506020028101906113939190611eef565b825460018101845560009384526020909320909201916113b39183611ce2565b50600101611363565b5060048201805460ff19166001179055600254604051339163ffffffff16907fdf2d6b09c15bec87dd720203728abf9e0f934533125ef5ec918c803cc04f3d4090600090a35050505050505050565b63ffffffff80831660008181526020819052604090208054909216146114665760405162461bcd60e51b815260206004820152601060248201526f15195b99195c881b9bdd08199bdd5b9960821b6044820152606401610336565b600481015460ff166114aa5760405162461bcd60e51b815260206004820152600d60248201526c15195b99195c8818db1bdcd959609a1b6044820152606401610336565b8163ffffffff166000036114f25760405162461bcd60e51b815260206004820152600f60248201526e0426964206d757374206265203e203608c1b6044820152606401610336565b60405163ffffffff83811682523391908516907ff72475840f4eb577daec47c0024f6730d1f2c3772709ab39422509414c05f6759060200160405180910390a3505050565b82805482825590600052602060002090810192821561157d579160200282015b8281111561157d578251829061156d9082611da3565b5091602001919060010190611557565b5061158992915061158d565b5090565b808211156115895760006115a182826115aa565b5060010161158d565b5080546115b690611c59565b6000825580601f106115c6575050565b601f0160209004906000526020600020908101906115e491906115e7565b50565b5b8082111561158957600081556001016115e8565b803563ffffffff8116811461161057600080fd5b919050565b60008083601f84011261162757600080fd5b50813567ffffffffffffffff81111561163f57600080fd5b60208301915083602082850101111561165757600080fd5b9250929050565b60008060008060006080868803121561167657600080fd5b61167f866115fc565b9450602086013567ffffffffffffffff81111561169b57600080fd5b6116a788828901611615565b90955093506116ba9050604087016115fc565b91506116c8606087016115fc565b90509295509295909350565b803560ff8116811461161057600080fd5b600080600080606085870312156116fb57600080fd5b611704856115fc565b9350611712602086016116d4565b9250604085013567ffffffffffffffff81111561172e57600080fd5b61173a87828801611615565b95989497509550505050565b6000806040838503121561175957600080fd5b611762836115fc565b9150611770602084016116d4565b90509250929050565b60006020828403121561178b57600080fd5b611794826115fc565b9392505050565b6000815180845260005b818110156117c1576020818501810151868301820152016117a5565b506000602082860101526020601f19601f83011685010191505092915050565b600081518084526020808501808196508360051b8101915082860160005b8581101561182957828403895261181784835161179b565b988501989350908401906001016117ff565b5091979650505050505050565b6020815261184d60208201835163ffffffff169052565b60006020830151611866604084018263ffffffff169052565b50604083015163ffffffff811660608401525060608301516001600160a01b03811660808401525060808301516001600160a01b03811660a08401525060a08301516101208060c08501526118bf61014085018361179b565b915060c0850151601f198584030160e08601526118dc83826117e1565b92505060e08501516101006118f48187018315159052565b9095015160ff1693019290925250919050565b6000806040838503121561191a57600080fd5b611923836115fc565b9150611770602084016115fc565b600063ffffffff808916835280881660208401525060c0604083015261195a60c083018761179b565b828103606084015261196c818761179b565b9415156080840152505090151560a090910152949350505050565b60008083601f84011261199957600080fd5b50813567ffffffffffffffff8111156119b157600080fd5b6020830191508360208260051b850101111561165757600080fd5b600080600080600080608087890312156119e557600080fd5b6119ee876115fc565b9550602087013567ffffffffffffffff80821115611a0b57600080fd5b611a178a838b01611615565b9097509550859150611a2b60408a016115fc565b94506060890135915080821115611a4157600080fd5b50611a4e89828a01611987565b979a9699509497509295939492505050565b60208152600063ffffffff80845116602084015280602085015116604084015250604083015160c06060840152611a9a60e084018261179b565b90506060840151601f19848303016080850152611ab7828261179b565b9150506080840151151560a084015260a0840151151560c08401528091505092915050565b63ffffffff89811682528881166020830152871660408201526001600160a01b0386811660608301528516608082015261010060a08201819052600090611b258382018761179b565b94151560c0840152505060ff9190911660e0909101529695505050505050565b60008060408385031215611b5857600080fd5b611b61836115fc565b915060208301356001600160a01b0381168114611b7d57600080fd5b809150509250929050565b60008060008060008060808789031215611ba157600080fd5b863567ffffffffffffffff80821115611bb957600080fd5b611bc58a838b01611615565b9098509650869150611bd960208a016115fc565b9550611a2b60408a016115fc565b6020808252600d908201526c27b7363c9032b6b83637bcb2b960991b604082015260600190565b634e487b7160e01b600052601160045260246000fd5b600060ff821660ff8103611c3a57611c3a611c0e565b60010192915050565b634e487b7160e01b600052604160045260246000fd5b600181811c90821680611c6d57607f821691505b602082108103611c8d57634e487b7160e01b600052602260045260246000fd5b50919050565b601f821115611cdd57600081815260208120601f850160051c81016020861015611cba5750805b601f850160051c820191505b81811015611cd957828155600101611cc6565b5050505b505050565b67ffffffffffffffff831115611cfa57611cfa611c43565b611d0e83611d088354611c59565b83611c93565b6000601f841160018114611d425760008515611d2a5750838201355b600019600387901b1c1916600186901b178355611d9c565b600083815260209020601f19861690835b82811015611d735786850135825560209485019460019092019101611d53565b5086821015611d905760001960f88860031b161c19848701351681555b505060018560011b0183555b5050505050565b815167ffffffffffffffff811115611dbd57611dbd611c43565b611dd181611dcb8454611c59565b84611c93565b602080601f831160018114611e065760008415611dee5750858301515b600019600386901b1c1916600185901b178555611cd9565b600085815260208120601f198616915b82811015611e3557888601518255948401946001909101908401611e16565b5085821015611e535787850151600019600388901b60f8161c191681555b5050505050600190811b01905550565b60ff818116838216019081111561102857611028611c0e565b602080825260149082015273125b9d985b1a59081b5a5b195cdd1bdb9948125160621b604082015260600190565b60208152816020820152818360408301376000818301604090810191909152601f909201601f19160101919050565b634e487b7160e01b600052603260045260246000fd5b6000808335601e19843603018112611f0657600080fd5b83018035915067ffffffffffffffff821115611f2157600080fd5b60200191503681900382131561165757600080fd5b600063ffffffff808316818103611f4f57611f4f611c0e565b600101939250505056fea2646970667358221220dc91e7104ea37e593f0eb8a01470f843badb41db05583a401c1300737079690c64736f6c63430008140033",
    "linkReferences": {},
    "deployedLinkReferences": {}
}