{
    "_format": "hh-sol-artifact-1",
    "contractName": "PaymentContract",
    "sourceName": "contracts/PaymentContract.sol",
    "abi": [
        {
            "inputs": [],
            "stateMutability": "payable",
            "type": "constructor"
        },
        {
            "anonymous": false,
            "inputs": [
                {
                    "indexed": true,
                    "internalType": "address",
                    "name": "previousAdmin",
                    "type": "address"
                },
                {
                    "indexed": true,
                    "internalType": "address",
                    "name": "newAdmin",
                    "type": "address"
                }
            ],
            "name": "AdminChanged",
            "type": "event"
        },
        {
            "anonymous": false,
            "inputs": [
                {
                    "indexed": true,
                    "internalType": "uint32",
                    "name": "tenderId",
                    "type": "uint32"
                },
                {
                    "indexed": true,
                    "internalType": "address",
                    "name": "vendor",
                    "type": "address"
                },
                {
                    "indexed": false,
                    "internalType": "uint32",
                    "name": "amount",
                    "type": "uint32"
                }
            ],
            "name": "PaymentReleased",
            "type": "event"
        },
        {
            "anonymous": false,
            "inputs": [
                {
                    "indexed": true,
                    "internalType": "uint32",
                    "name": "tenderId",
                    "type": "uint32"
                },
                {
                    "indexed": true,
                    "internalType": "uint8",
                    "name": "milestoneId",
                    "type": "uint8"
                },
                {
                    "indexed": false,
                    "internalType": "uint32",
                    "name": "amount",
                    "type": "uint32"
                }
            ],
            "name": "PenaltyApplied",
            "type": "event"
        },
        {
            "anonymous": false,
            "inputs": [
                {
                    "indexed": true,
                    "internalType": "uint256",
                    "name": "previousRate",
                    "type": "uint256"
                },
                {
                    "indexed": true,
                    "internalType": "uint256",
                    "name": "newRate",
                    "type": "uint256"
                }
            ],
            "name": "PenaltyRateChanged",
            "type": "event"
        },
        {
            "anonymous": false,
            "inputs": [
                {
                    "indexed": true,
                    "internalType": "uint32",
                    "name": "tenderId",
                    "type": "uint32"
                },
                {
                    "indexed": false,
                    "internalType": "uint32",
                    "name": "amount",
                    "type": "uint32"
                }
            ],
            "name": "TenderFunded",
            "type": "event"
        },
        {
            "stateMutability": "payable",
            "type": "fallback"
        },
        {
            "inputs": [],
            "name": "admin",
            "outputs": [
                {
                    "internalType": "address",
                    "name": "",
                    "type": "address"
                }
            ],
            "stateMutability": "view",
            "type": "function"
        },
        {
            "inputs": [
                {
                    "internalType": "uint32",
                    "name": "_tenderId",
                    "type": "uint32"
                },
                {
                    "internalType": "uint8",
                    "name": "_milestoneId",
                    "type": "uint8"
                },
                {
                    "internalType": "address payable",
                    "name": "_tenderContract",
                    "type": "address"
                }
            ],
            "name": "applyPenalty",
            "outputs": [],
            "stateMutability": "nonpayable",
            "type": "function"
        },
        {
            "inputs": [
                {
                    "internalType": "address",
                    "name": "_newAdmin",
                    "type": "address"
                }
            ],
            "name": "changeAdmin",
            "outputs": [],
            "stateMutability": "nonpayable",
            "type": "function"
        },
        {
            "inputs": [
                {
                    "internalType": "uint256",
                    "name": "_newRate",
                    "type": "uint256"
                }
            ],
            "name": "changePenaltyRate",
            "outputs": [],
            "stateMutability": "nonpayable",
            "type": "function"
        },
        {
            "inputs": [
                {
                    "internalType": "uint32",
                    "name": "_tenderId",
                    "type": "uint32"
                }
            ],
            "name": "fundTender",
            "outputs": [],
            "stateMutability": "payable",
            "type": "function"
        },
        {
            "inputs": [
                {
                    "internalType": "uint32",
                    "name": "_tenderId",
                    "type": "uint32"
                }
            ],
            "name": "getTenderFunds",
            "outputs": [
                {
                    "internalType": "uint32",
                    "name": "",
                    "type": "uint32"
                }
            ],
            "stateMutability": "view",
            "type": "function"
        },
        {
            "inputs": [],
            "name": "penaltyRate",
            "outputs": [
                {
                    "internalType": "uint256",
                    "name": "",
                    "type": "uint256"
                }
            ],
            "stateMutability": "view",
            "type": "function"
        },
        {
            "inputs": [
                {
                    "internalType": "uint32",
                    "name": "_tenderId",
                    "type": "uint32"
                },
                {
                    "internalType": "address payable",
                    "name": "_vendor",
                    "type": "address"
                },
                {
                    "internalType": "uint32",
                    "name": "_amount",
                    "type": "uint32"
                }
            ],
            "name": "releasePartialPayment",
            "outputs": [],
            "stateMutability": "nonpayable",
            "type": "function"
        },
        {
            "inputs": [
                {
                    "internalType": "uint32",
                    "name": "tenderId",
                    "type": "uint32"
                }
            ],
            "name": "tenderFunds",
            "outputs": [
                {
                    "internalType": "uint32",
                    "name": "",
                    "type": "uint32"
                }
            ],
            "stateMutability": "view",
            "type": "function"
        },
        {
            "stateMutability": "payable",
            "type": "receive"
        }
    ],
    "bytecode": "0x60806040526005600255600080546001600160a01b0319163317905534156100c657600080805260016020527fa6eef7e35abe7026729641147f7915573c7e97b47efa546f5f6e3230263bcb49805434929061006290849063ffffffff166100cb565b92506101000a81548163ffffffff021916908363ffffffff16021790555060007fe8a5645b8574fe9455bfb20f2e7d26a5476817e2ddd9a619d78e24e059ec8cb3346040516100bd919063ffffffff91909116815260200190565b60405180910390a25b6100fd565b63ffffffff8181168382160190808211156100f657634e487b7160e01b600052601160045260246000fd5b5092915050565b610e738061010c6000396000f3fe60806040526004361061008a5760003560e01c8063d5738a1b11610059578063d5738a1b14610230578063d6b7494f14610266578063e49ba97e1461028a578063e94706381461029d578063f851a440146102bd5761013c565b8063195b061a14610183578063256adb8d146101a35780638f283970146101c3578063c799e271146101e35761013c565b3661013c57341561013a57600080805260016020527fa6eef7e35abe7026729641147f7915573c7e97b47efa546f5f6e3230263bcb4980543492906100d690849063ffffffff16610ab7565b92506101000a81548163ffffffff021916908363ffffffff16021790555060007fe8a5645b8574fe9455bfb20f2e7d26a5476817e2ddd9a619d78e24e059ec8cb334604051610131919063ffffffff91909116815260200190565b60405180910390a25b005b341561013a57600080805260016020527fa6eef7e35abe7026729641147f7915573c7e97b47efa546f5f6e3230263bcb4980543492906100d690849063ffffffff16610ab7565b34801561018f57600080fd5b5061013a61019e366004610b05565b6102f5565b3480156101af57600080fd5b5061013a6101be366004610b56565b6105df565b3480156101cf57600080fd5b5061013a6101de366004610b96565b61086c565b3480156101ef57600080fd5b506102166101fe366004610bba565b60016020526000908152604090205463ffffffff1681565b60405163ffffffff90911681526020015b60405180910390f35b34801561023c57600080fd5b5061021661024b366004610bba565b63ffffffff9081166000908152600160205260409020541690565b34801561027257600080fd5b5061027c60025481565b604051908152602001610227565b61013a610298366004610bba565b61094b565b3480156102a957600080fd5b5061013a6102b8366004610bd7565b6109f3565b3480156102c957600080fd5b506000546102dd906001600160a01b031681565b6040516001600160a01b039091168152602001610227565b6000546001600160a01b031633146103285760405162461bcd60e51b815260040161031f90610bf0565b60405180910390fd5b6000816001600160a01b03163b116103825760405162461bcd60e51b815260206004820152601e60248201527f496e76616c69642054656e646572436f6e747261637420616464726573730000604482015260640161031f565b604051637b6b4d4f60e01b815263ffffffff8416600482015260ff8316602482015281906000906001600160a01b03831690637b6b4d4f90604401600060405180830381865afa1580156103da573d6000803e3d6000fd5b505050506040513d6000823e601f3d908101601f191682016040526104029190810190610d29565b805190915063ffffffff1642116104515760405162461bcd60e51b8152602060048201526013602482015272111958591b1a5b99481b9bdd081c185cdcd959606a1b604482015260640161031f565b8060800151156104a35760405162461bcd60e51b815260206004820152601b60248201527f4d696c6573746f6e6520616c726561647920636f6d706c657465640000000000604482015260640161031f565b60006064600254836020015163ffffffff166104bf9190610dfe565b6104c99190610e1b565b90508063ffffffff166000036105155760405162461bcd60e51b815260206004820152601160248201527014195b985b1d1e481d1bdbc81cdb585b1b607a1b604482015260640161031f565b63ffffffff808716600090815260016020526040902054811690821681116105745760405162461bcd60e51b8152602060048201526012602482015271496e73756666696369656e742066756e647360701b604482015260640161031f565b63ffffffff878116600081815260016020908152604091829020805463ffffffff191687870386161790559051928516835260ff8916927fd6cea7d9d067620f96d08111ffe262f0ca623e1f50742b386b85e931ea105220910160405180910390a350505050505050565b60035460ff16156106235760405162461bcd60e51b815260206004820152600e60248201526d1499595b9d1c985b9d0818d85b1b60921b604482015260640161031f565b6003805460ff19166001179055600054336001600160a01b039091161461065c5760405162461bcd60e51b815260040161031f90610bf0565b6001600160a01b0382166106ab5760405162461bcd60e51b8152602060048201526016602482015275496e76616c69642076656e646f72206164647265737360501b604482015260640161031f565b8063ffffffff166000036106fa5760405162461bcd60e51b8152602060048201526016602482015275416d6f756e74206d757374206265206e6f6e7a65726f60501b604482015260640161031f565b63ffffffff808416600090815260016020526040902054811690821681116107595760405162461bcd60e51b8152602060048201526012602482015271496e73756666696369656e742066756e647360701b604482015260640161031f565b63ffffffff848116600090815260016020526040808220805463ffffffff191686860385161790555190916001600160a01b03861691908516908381818185875af1925050503d80600081146107cb576040519150601f19603f3d011682016040523d82523d6000602084013e6107d0565b606091505b50509050806108125760405162461bcd60e51b815260206004820152600e60248201526d14185e5b595b9d0819985a5b195960921b604482015260640161031f565b60405163ffffffff84811682526001600160a01b03861691908716907fafd0063e1e9931de8a3407ae32a9319b762ebff566a22eac928633f77ee07fae9060200160405180910390a350506003805460ff19169055505050565b6000546001600160a01b031633146108965760405162461bcd60e51b815260040161031f90610bf0565b6001600160a01b0381166108e45760405162461bcd60e51b8152602060048201526015602482015274496e76616c69642061646d696e206164647265737360581b604482015260640161031f565b6000546001600160a01b03908116908216811461094757600080546001600160a01b0319166001600160a01b0384811691821783556040519192908416917f7e644d79422f17c01e4894b5f4f588d331ebfa28653d42ae832dc59e38c9798f9190a35b5050565b3460000361098b5760405162461bcd60e51b815260206004820152600d60248201526c139bc8199d5b991cc81cd95b9d609a1b604482015260640161031f565b63ffffffff818116600081815260016020908152604091829020805463ffffffff1981163491871682018716179091559151938216845290927fe8a5645b8574fe9455bfb20f2e7d26a5476817e2ddd9a619d78e24e059ec8cb3910160405180910390a25050565b6000546001600160a01b03163314610a1d5760405162461bcd60e51b815260040161031f90610bf0565b60658110610a615760405162461bcd60e51b8152602060048201526011602482015270526174652065786365656473203130302560781b604482015260640161031f565b600254818114610947576002829055604051829082907f8bb9d2b68b1e9748eef111ed7a2df451408789029ad031f3d8a03d2bbdacaf6190600090a35050565b634e487b7160e01b600052601160045260246000fd5b63ffffffff818116838216019080821115610ad457610ad4610aa1565b5092915050565b63ffffffff81168114610aed57600080fd5b50565b6001600160a01b0381168114610aed57600080fd5b600080600060608486031215610b1a57600080fd5b8335610b2581610adb565b9250602084013560ff81168114610b3b57600080fd5b91506040840135610b4b81610af0565b809150509250925092565b600080600060608486031215610b6b57600080fd5b8335610b7681610adb565b92506020840135610b8681610af0565b91506040840135610b4b81610adb565b600060208284031215610ba857600080fd5b8135610bb381610af0565b9392505050565b600060208284031215610bcc57600080fd5b8135610bb381610adb565b600060208284031215610be957600080fd5b5035919050565b6020808252600a908201526927b7363c9030b236b4b760b11b604082015260600190565b634e487b7160e01b600052604160045260246000fd5b60405160c0810167ffffffffffffffff81118282101715610c4d57610c4d610c14565b60405290565b604051601f8201601f1916810167ffffffffffffffff81118282101715610c7c57610c7c610c14565b604052919050565b8051610c8f81610adb565b919050565b600082601f830112610ca557600080fd5b815167ffffffffffffffff811115610cbf57610cbf610c14565b6020610cd3601f8301601f19168201610c53565b8281528582848701011115610ce757600080fd5b60005b83811015610d05578581018301518282018401528201610cea565b506000928101909101919091529392505050565b80518015158114610c8f57600080fd5b600060208284031215610d3b57600080fd5b815167ffffffffffffffff80821115610d5357600080fd5b9083019060c08286031215610d6757600080fd5b610d6f610c2a565b610d7883610c84565b8152610d8660208401610c84565b6020820152604083015182811115610d9d57600080fd5b610da987828601610c94565b604083015250606083015182811115610dc157600080fd5b610dcd87828601610c94565b606083015250610ddf60808401610d19565b6080820152610df060a08401610d19565b60a082015295945050505050565b8082028115828204841417610e1557610e15610aa1565b92915050565b600082610e3857634e487b7160e01b600052601260045260246000fd5b50049056fea2646970667358221220e3554f0ea295a85c2d9e79ba764a300d584a23836736ce2c0505e4b8c9bcdc2064736f6c63430008140033",
    "linkReferences": {},
    "deployedLinkReferences": {}
}