{
    "_format": "hh-sol-artifact-1",
    "contractName": "VendorContract",
    "sourceName": "contracts/VendorContract.sol",
    "abi": [
        {
            "inputs": [],
            "stateMutability": "payable",
            "type": "constructor"
        },
        {
            "anonymous": false,
            "inputs": [
                {
                    "indexed": true,
                    "internalType": "address",
                    "name": "previousAdmin",
                    "type": "address"
                },
                {
                    "indexed": true,
                    "internalType": "address",
                    "name": "newAdmin",
                    "type": "address"
                }
            ],
            "name": "AdminChanged",
            "type": "event"
        },
        {
            "anonymous": false,
            "inputs": [
                {
                    "indexed": false,
                    "internalType": "address",
                    "name": "vendor",
                    "type": "address"
                },
                {
                    "indexed": true,
                    "internalType": "address",
                    "name": "caller",
                    "type": "address"
                }
            ],
            "name": "VendorBlacklisted",
            "type": "event"
        },
        {
            "anonymous": false,
            "inputs": [
                {
                    "indexed": true,
                    "internalType": "address",
                    "name": "vendor",
                    "type": "address"
                },
                {
                    "indexed": false,
                    "internalType": "string",
                    "name": "legalCertHash",
                    "type": "string"
                }
            ],
            "name": "VendorRegistered",
            "type": "event"
        },
        {
            "anonymous": false,
            "inputs": [
                {
                    "indexed": false,
                    "internalType": "address",
                    "name": "vendor",
                    "type": "address"
                },
                {
                    "indexed": true,
                    "internalType": "address",
                    "name": "caller",
                    "type": "address"
                }
            ],
            "name": "VendorUnblacklisted",
            "type": "event"
        },
        {
            "anonymous": false,
            "inputs": [
                {
                    "indexed": true,
                    "internalType": "address",
                    "name": "vendor",
                    "type": "address"
                },
                {
                    "indexed": false,
                    "internalType": "uint16",
                    "name": "workload",
                    "type": "uint16"
                }
            ],
            "name": "VendorWorkloadUpdated",
            "type": "event"
        },
        {
            "inputs": [],
            "name": "admin",
            "outputs": [
                {
                    "internalType": "address",
                    "name": "",
                    "type": "address"
                }
            ],
            "stateMutability": "view",
            "type": "function"
        },
        {
            "inputs": [
                {
                    "internalType": "address",
                    "name": "_vendor",
                    "type": "address"
                }
            ],
            "name": "blacklistVendor",
            "outputs": [],
            "stateMutability": "nonpayable",
            "type": "function"
        },
        {
            "inputs": [
                {
                    "internalType": "address",
                    "name": "_newAdmin",
                    "type": "address"
                }
            ],
            "name": "changeAdmin",
            "outputs": [],
            "stateMutability": "nonpayable",
            "type": "function"
        },
        {
            "inputs": [
                {
                    "internalType": "address",
                    "name": "_vendorAddress",
                    "type": "address"
                }
            ],
            "name": "getVendor",
            "outputs": [
                {
                    "components": [
                        {
                            "internalType": "address",
                            "name": "vendorAddr",
                            "type": "address"
                        },
                        {
                            "internalType": "string",
                            "name": "legalCertHash",
                            "type": "string"
                        },
                        {
                            "internalType": "string[]",
                            "name": "certHashes",
                            "type": "string[]"
                        },
                        {
                            "internalType": "uint16",
                            "name": "workload",
                            "type": "uint16"
                        },
                        {
                            "internalType": "bool",
                            "name": "isBlacklisted",
                            "type": "bool"
                        }
                    ],
                    "internalType": "struct VendorContract.Vendor",
                    "name": "",
                    "type": "tuple"
                }
            ],
            "stateMutability": "view",
            "type": "function"
        },
        {
            "inputs": [
                {
                    "internalType": "string",
                    "name": "_legalCertHash",
                    "type": "string"
                },
                {
                    "internalType": "string[]",
                    "name": "_certHashes",
                    "type": "string[]"
                }
            ],
            "name": "registerVendor",
            "outputs": [],
            "stateMutability": "nonpayable",
            "type": "function"
        },
        {
            "inputs": [
                {
                    "internalType": "address",
                    "name": "_vendor",
                    "type": "address"
                }
            ],
            "name": "unblacklistVendor",
            "outputs": [],
            "stateMutability": "nonpayable",
            "type": "function"
        },
        {
            "inputs": [
                {
                    "internalType": "uint16",
                    "name": "_workload",
                    "type": "uint16"
                }
            ],
            "name": "updateWorkload",
            "outputs": [],
            "stateMutability": "nonpayable",
            "type": "function"
        },
        {
            "inputs": [
                {
                    "internalType": "address",
                    "name": "",
                    "type": "address"
                }
            ],
            "name": "vendors",
            "outputs": [
                {
                    "internalType": "address",
                    "name": "vendorAddr",
                    "type": "address"
                },
                {
                    "internalType": "string",
                    "name": "legalCertHash",
                    "type": "string"
                },
                {
                    "internalType": "uint16",
                    "name": "workload",
                    "type": "uint16"
                },
                {
                    "internalType": "bool",
                    "name": "isBlacklisted",
                    "type": "bool"
                }
            ],
            "stateMutability": "view",
            "type": "function"
        }
    ],
    "bytecode": "0x6080604052600180546001600160a01b03191633179055610dc7806100256000396000f3fe608060405234801561001057600080fd5b50600436106100885760003560e01c80638f2839701161005b5780638f283970146101015780639296edc514610114578063d0ea510a14610127578063f851a4401461013a57600080fd5b80630bc0f7d31461008d57806327e30c36146100b6578063392434c1146100d9578063511ed3de146100ee575b600080fd5b6100a061009b366004610901565b610165565b6040516100ad9190610977565b60405180910390f35b6100c96100c4366004610901565b61034e565b6040516100ad9493929190610a2f565b6100ec6100e7366004610a6f565b610413565b005b6100ec6100fc366004610901565b6104e1565b6100ec61010f366004610901565b6105db565b6100ec610122366004610901565b6106b0565b6100ec610135366004610a93565b6107a0565b60015461014d906001600160a01b031681565b6040516001600160a01b0390911681526020016100ad565b6040805160a08082018352600080835260606020808501829052848601829052908401829052608084018290526001600160a01b0386811683528282529185902085519384019095528454909116825260018401805493949293918401916101cc90610b58565b80601f01602080910402602001604051908101604052809291908181526020018280546101f890610b58565b80156102455780601f1061021a57610100808354040283529160200191610245565b820191906000526020600020905b81548152906001019060200180831161022857829003601f168201915b5050505050815260200160028201805480602002602001604051908101604052809291908181526020016000905b8282101561031f57838290600052602060002001805461029290610b58565b80601f01602080910402602001604051908101604052809291908181526020018280546102be90610b58565b801561030b5780601f106102e05761010080835404028352916020019161030b565b820191906000526020600020905b8154815290600101906020018083116102ee57829003601f168201915b505050505081526020019060010190610273565b505050908252506003919091015461ffff8116602083015262010000900460ff16151560409091015292915050565b600060208190529081526040902080546001820180546001600160a01b03909216929161037a90610b58565b80601f01602080910402602001604051908101604052809291908181526020018280546103a690610b58565b80156103f35780601f106103c8576101008083540402835291602001916103f3565b820191906000526020600020905b8154815290600101906020018083116103d657829003601f168201915b5050506003909301549192505061ffff81169060ff620100009091041684565b33600090815260208190526040902080546001600160a01b03166104525760405162461bcd60e51b815260040161044990610b92565b60405180910390fd5b60a98261ffff16106104915760405162461bcd60e51b81526020600482015260086024820152670a8dede40daeac6d60c31b6044820152606401610449565b60038101805461ffff191661ffff841690811790915560405190815233907ff7a45981908a3cba0d740cd317432a8710fe261ecba5a2a2902fd17053ae1b83906020015b60405180910390a25050565b6001546001600160a01b0316331461050b5760405162461bcd60e51b815260040161044990610bb4565b6001600160a01b03808216600090815260208190526040902080549091166105455760405162461bcd60e51b815260040161044990610b92565b600381015462010000900460ff161561058d5760405162461bcd60e51b815260206004820152600a602482015269105b1c9958591e48189b60b21b6044820152606401610449565b60038101805462ff00001916620100001790556040516001600160a01b038316815233907f195c78ee0e5a407f0ac392c544ca9e76edb88eab0d6e64ae9bbafd2637474673906020016104d5565b6001546001600160a01b031633146106055760405162461bcd60e51b815260040161044990610bb4565b6001600160a01b0381166106475760405162461bcd60e51b815260206004820152600960248201526824b73b1030b236b4b760b91b6044820152606401610449565b6001546001600160a01b0390811690821681146106ac57600180546001600160a01b0319166001600160a01b0384811691821790925560405190918316907f7e644d79422f17c01e4894b5f4f588d331ebfa28653d42ae832dc59e38c9798f90600090a35b5050565b6001546001600160a01b031633146106da5760405162461bcd60e51b815260040161044990610bb4565b6001600160a01b03808216600090815260208190526040902080549091166107145760405162461bcd60e51b815260040161044990610b92565b600381015462010000900460ff166107575760405162461bcd60e51b8152602060048201526006602482015265139bdd08189b60d21b6044820152606401610449565b60038101805462ff0000191690556040516001600160a01b038316815233907f41481a1f04ff4467a7180e47f643eaada50959eaa3ffc5263020a5b2879cf6c6906020016104d5565b33600090815260208190526040902080546001600160a01b0316156107f05760405162461bcd60e51b815260040161044990602080825260049082015263149959d960e21b604082015260600190565b600b82106108315760405162461bcd60e51b815260206004820152600e60248201526d546f6f206d616e7920636572747360901b6044820152606401610449565b80546001600160a01b0319163317815560018101610850858783610c3d565b508160005b818110156108ae578260020185858381811061087357610873610cfe565b90506020028101906108859190610d14565b825460018101845560009384526020909320909201916108a59183610c3d565b50600101610855565b5060038201805462ffffff1916905560405133907f85b62d42045862192f9e1f971fcb74803cb7ce2635b0dd91716f738bafcb32c6906108f19089908990610d62565b60405180910390a2505050505050565b60006020828403121561091357600080fd5b81356001600160a01b038116811461092a57600080fd5b9392505050565b6000815180845260005b818110156109575760208185018101518683018201520161093b565b506000602082860101526020601f19601f83011685010191505092915050565b602080825282516001600160a01b0316828201528281015160a06040840152600091906109a760c0850182610931565b6040860151601f198683038101606088015281518084529293509084019184840190600581901b8501860160005b82811015610a0157848783030184526109ef828751610931565b958801959388019391506001016109d5565b5060608a015161ffff811660808b0152965060808a015180151560a08b015296509998505050505050505050565b6001600160a01b0385168152608060208201819052600090610a5390830186610931565b61ffff9490941660408301525090151560609091015292915050565b600060208284031215610a8157600080fd5b813561ffff8116811461092a57600080fd5b60008060008060408587031215610aa957600080fd5b843567ffffffffffffffff80821115610ac157600080fd5b818701915087601f830112610ad557600080fd5b813581811115610ae457600080fd5b886020828501011115610af657600080fd5b602092830196509450908601359080821115610b1157600080fd5b818701915087601f830112610b2557600080fd5b813581811115610b3457600080fd5b8860208260051b8501011115610b4957600080fd5b95989497505060200194505050565b600181811c90821680610b6c57607f821691505b602082108103610b8c57634e487b7160e01b600052602260045260246000fd5b50919050565b602080825260089082015267139bdd081c9959d960c21b604082015260600190565b6020808252600a908201526927b7363c9030b236b4b760b11b604082015260600190565b634e487b7160e01b600052604160045260246000fd5b601f821115610c3857600081815260208120601f850160051c81016020861015610c155750805b601f850160051c820191505b81811015610c3457828155600101610c21565b5050505b505050565b67ffffffffffffffff831115610c5557610c55610bd8565b610c6983610c638354610b58565b83610bee565b6000601f841160018114610c9d5760008515610c855750838201355b600019600387901b1c1916600186901b178355610cf7565b600083815260209020601f19861690835b82811015610cce5786850135825560209485019460019092019101610cae565b5086821015610ceb5760001960f88860031b161c19848701351681555b505060018560011b0183555b5050505050565b634e487b7160e01b600052603260045260246000fd5b6000808335601e19843603018112610d2b57600080fd5b83018035915067ffffffffffffffff821115610d4657600080fd5b602001915036819003821315610d5b57600080fd5b9250929050565b60208152816020820152818360408301376000818301604090810191909152601f909201601f1916010191905056fea2646970667358221220c4402619e6017e06b5ba00c39464e1af6f47ca87e5e2f26c0dee6a1a7010dd9664736f6c63430008140033",
    "linkReferences": {},
    "deployedLinkReferences": {}
}